:1000000012C02CC02BC0D9C029C028C027C026C010
:1000100025C024C023C022C021C020C01FC01EC0D4
:100020001DC01CC01BC011241FBECFE5D4E0DEBF25
:10003000CDBF10E0A0E6B0E0E6E5F9E002C0059033
:100040000D92A636B107D9F710E0A6E6B0E001C0E0
:100050001D92A736B107E1F744D07BC4D1CFEF9210
:10006000FF920F931F93CF93DF9323E534E049E68C
:1000700057E348D220E030E04FE753E443D27B011E
:100080008C0120E030E040E85FE3D5D318168CF413
:10009000C0E0D0E003C08FEFC4D12196BE01882715
:1000A00077FD8095982FC4D2A801970127D2181602
:1000B00094F7C801B701F7D29B01AC01C801B701A1
:1000C000B8D120E030E04FE753E4B9D383D2DC016C
:1000D000CB01A7D1DF91CF911F910F91FF90EF90AE
:1000E00008956F927F928F929F92AF92BF92CF921C
:1000F000DF92EF92FF920F931F93DF93CF93CDB7D1
:10010000DEB72A970FB6F894DEBF0FBECDBFA5D0DD
:10011000DE011596E3E6F0E083E001900D92815058
:10012000E1F7DE011896E0E6F0E083E001900D9241
:100130008150E1F781E089831A821B828C8380E001
:1001400090E045E0642E712C6C0E7D1E38E0832E0D
:10015000912C8C0E9D1E5E010894A11CB11C23E005
:10016000C22ED12CCC0EDD1E7C01C70163E070E0F5
:10017000C9D38C01F301E80FF91F80813FD0080D2E
:10018000191DF80180814DD0F701E170F070D501A3
:10019000AE0FBF1FEC0DFD1D8C9160814BD060E058
:1001A00070E080E09FE35BDFC7010196EE24FF244F
:1001B000FFE78F3F9F07C1F6D8CF1F920F920FB670
:1001C0000F9211248F93809166008F5F8093660059
:1001D0008F910F900FBE0F901F90189590E09BBDD0
:1001E0008ABD70E079BD68BD089592B39F7C982B5D
:1001F00092BB88B38F7C862B88BB0895882311F42B
:10020000C09803C0813019F4C09A92980895833041
:1002100019F4C09A929A0895823011F4C098929A73
:10022000089592B38295880F880F807C9F7B982BCE
:1002300092BB0895982F882311F4662349F097986C
:1002400084B3836084BB85B3836085BB992309F441
:10025000A998662309F4A898089589E185BD8EE6DA
:1002600083BD89B7806889BF1BB81AB896E890BD6E
:100270008FEC89B98FE387BB84EF81BB81EA8FBDA7
:1002800082E08EBD96B99798969881E061E0D2DFC2
:1002900080E060E0CFDF81E0B1DF82B38F7C8062FD
:1002A00082BB88B38F7C806288BB1BBC1ABC19BC24
:1002B00018BC78940895FC0183E487B9369A349B7E
:1002C000FECF349A34B125B1922F80E0830F911D77
:1002D0009183808382E487B9369A349BFECF349A27
:1002E00034B125B1922F80E0830F911D93838283D7
:1002F0000895FC0184B38C7F84BB979A81E487B90D
:10030000369A349BFECF349A34B125B1922F80E0D7
:10031000830F911D9183808380E487B9369A349B43
:10032000FECF349A34B125B1922F80E0830F911D16
:1003300093838283089528E02AB9FC0105C05D9B60
:10034000FECF81918CB961506623C9F75E9BFECFC9
:100350000895FC0180E18AB94115510511F490E03E
:100360001EC0DF0170E005C05F9B07C08CB18D939C
:100370007F5F7617B0F420E030E02F5F3F4FC90178
:1003800001978417950780F34217530750F484E5CB
:10039000808308955F9BFECF8CB181939F5F9617FA
:1003A000C8F308958B9A939A84E487B910926600F3
:1003B000809166008A30E0F3369A349BFECF349AFF
:1003C00034B125B19398722F60E0630F711D80E006
:1003D00090E02CD19B01AC0160E070E080E894E4F7
:1003E00091D020E030E040E85FE323D020E030E02F
:1003F0004CE752E424D220E030E040E05FE31AD042
:10040000E9D0DC01CB01089593988B9885B7837F61
:1004100085BF8BB780688BBF08958BB78F778BBFF5
:100420000895982F10926600809166008917E0F376
:1004300008955058BB27AA270ED0ACC19DD130F0EB
:10044000A2D120F031F49F3F11F41EF492C10EF4BA
:10045000E095E7FB5FC1E92FAED180F3BA176207E1
:1004600073078407950718F071F49EF5DDC10EF44B
:10047000E0950B2EBA2FA02D0B01B90190010C01B4
:10048000CA01A0011124FF27591B99F0593F50F4CC
:10049000503E68F11A16F040A22F232F342F442724
:1004A000585FF3CF469537952795A795F04053951C
:1004B000C9F77EF41F16BA0B620B730B840BBAF0EC
:1004C0009150A1F0FF0FBB1F661F771F881FC2F757
:1004D0000EC0BA0F621F731F841F48F4879577956B
:1004E0006795B795F7959E3F08F0B3CF9395880F22
:1004F00008F09927EE0F979587950895E7D008F4AF
:1005000081E008950CD046C13ED140F035D130F0A5
:1005100021F45F3F19F0FEC0511187C12AC14BD1B0
:1005200098F39923C9F35523B1F3951B550BBB27BA
:10053000AA2762177307840738F09F5F5F4F220F67
:10054000331F441FAA1FA9F333D00E2E3AF0E0E860
:1005500030D091505040E695001CCAF729D0FE2FAC
:1005600027D0660F771F881FBB1F2617370748073E
:10057000AB07B0E809F0BB0B802DBF01FF279358F4
:100580005F4F2AF09E3F510568F0C4C04EC15F3FE7
:10059000ECF3983EDCF3869577956795B795F795DC
:1005A0009F5FC9F7880F911D9695879597F90895D4
:1005B000E1E0660F771F881FBB1F62177307840770
:1005C000BA0720F0621B730B840BBA0BEE1F88F77F
:1005D000E0950895F8D088F09F5790F0B92F9927AB
:1005E000B751A0F0D1F0660F771F881F991F1AF03E
:1005F000BA95C9F712C0B13081F016D1B1E00895B3
:1006000013C1672F782F8827B85F39F0B93FCCF333
:10061000869577956795B395D9F73EF49095809533
:10062000709561957F4F8F4F9F4F0895E89409C053
:1006300097FB3EF490958095709561957F4F8F4F15
:100640009F4F9923A9F0F92F96E9BB279395F6952B
:10065000879577956795B795F111F8CFFAF4BB0FA9
:1006600011F460FF1BC06F5F7F4F8F4F9F4F16C00D
:10067000882311F096E911C0772321F09EE8872F97
:10068000762F05C0662371F096E8862F70E060E053
:100690002AF09A95660F771F881FDAF7880F9695CC
:1006A000879597F90895A9D080F09F3740F491116C
:1006B0000EF0BBC060E070E080E89FEB089526F488
:1006C0001B16611D711D811D2BC045C0990F0008AF
:1006D000550FAA0BE0E8FEEF16161706E807F90714
:1006E000C0F012161306E407F50798F0621B730BAF
:1006F000840B950B39F40A2661F0232B242B252B30
:1007000021F408950A2609F4A140A6958FEF811DD2
:10071000811D089597F99F6780E870E060E0089573
:10072000882371F4772321F09850872B762F07C008
:10073000662311F499270DC09051862B70E060E07C
:100740002AF09A95660F771F881FDAF7880F96951B
:10075000879597F908959F3F31F0915020F4879540
:1007600077956795B795880F911D9695879597F919
:1007700008959FEF80EC089500240A94161617063A
:1007800018060906089500240A9412161306140682
:1007900005060895092E0394000C11F4882352F0E5
:1007A000BB0F40F4BF2B11F460FF04C06F5F7F4F9D
:1007B0008F4F9F4F089557FD9058440F551F59F084
:1007C0005F3F71F04795880F97FB991F61F09F3F3E
:1007D00079F087950895121613061406551FF2CF67
:1007E0004695F1DF08C0161617061806991FF1CFB7
:1007F00086957105610508940895E5DFA0F0BEE7D0
:10080000B91788F4BB279F3860F41616B11D672FFF
:10081000782F8827985FF7CF869577956795B11DD4
:1008200093959639C8F30895E894BB2766277727F0
:10083000CB0197F908954ADF08F48FEF08950BD0A4
:10084000A9CF9ADF28F09FDF18F0952309F062CF37
:1008500090CF1124EACFAFDFA0F3959FD1F3950F8E
:1008600050E0551F629FF001729FBB27F00DB11D34
:10087000639FAA27F00DB11DAA1F649F6627B00DC4
:10088000A11D661F829F2227B00DA11D621F739FAD
:10089000B00DA11D621F839FA00D611D221F749FBB
:1008A0003327A00D611D231F849F600D211D822F02
:1008B000762F6A2F11249F5750408AF0E1F0882349
:1008C0004AF0EE0FFF1FBB1F661F771F881F915056
:1008D0005040A9F79E3F510570F01CCFA6CF5F3F57
:1008E000ECF3983EDCF3869577956795B795F79589
:1008F000E7959F5FC1F7FE2B880F911D9695879511
:1009000097F9089597FB092E07260AD077FD04D0A2
:100910000CD006D000201AF4709561957F4F089591
:10092000F6F7909581959F4F0895AA1BBB1B51E147
:1009300007C0AA1FBB1FA617B70710F0A61BB70B4F
:10094000881F991F5A95A9F780959095BC01CD01F4
:060950000895F894FFCFAA
:0609560001010001030293
:00000001FF
